:020000040800F2
:10000000E015002081100008E1100008A516000886
:10001000E1100008E1100008E110000800000000F5
:1000200000000000000000000000000001270008A0
:10003000E110000800000000412700089D2700088B
:10004000E1100008E1100008E1100008E1100008CC
:10005000E1100008E1100008E1100008E1100008BC
:10006000E1100008E1100008E1100008E1100008AC
:10007000E1100008E1100008E1100008E11000089C
:10008000012D0008E1100008E1100008E11000084F
:10009000E1100008E1100008E1100008E11000087C
:1000A000E1100008292D0008E1100008E110000807
:1000B000E1100008E1100008E1100008E11000085C
:1000C000E1100008E1100008E1100008E11000084C
:1000D000E1100008A5140008E1100008E110000874
:1000E000E1100008E1100008E11000080000000025
:1000F0000000000000000000000000000000000000
:1001000000000000000000005FF808F180B584B036
:1001100000AF03460A46FB711346BB713C4BFB60C4
:10012000FB68BA7983F80428FB68FA7983F8052814
:10013000FB6893F80438FA6892F8052802FB03F389
:10014000DAB2FB6883F80628FB6893F804385B0191
:10015000DBB2013BDAB2FB6883F80728FB6893F84F
:1001600005381B01DBB2013BDAB2FB6883F80828D3
:10017000FB68002283F809280121042001F0C2FD58
:100180001023FB7207233B810323BB7207F1080393
:100190001946204800F0A8FFFB68002283F80928D0
:1001A00000220D21012001F037FF0246FB68C3F851
:1001B000102800220C21012001F02EFF0246FB68CE
:1001C000C3F8142800220E21012001F025FF024669
:1001D000FB68C3F80C2800220121012001F01CFF5C
:1001E0000246FB68C3F8182800220021012001F014
:1001F00013FF0246FB68C3F81C28F86800F00CF8EF
:10020000F86800F01BF8FB6818461037BD4680BD43
:10021000300100200008014080B584B000AF786054
:100220007B68FB60FB684FF48062FF21184602F098
:100230004BFE00BF1037BD4680BD00BF80B584B007
:1002400000AF78607B68FB60FB6803F58063F9684A
:100250004FF48062184602F0C1FD00BF1037BD4662
:1002600080BD00BF80B489B000AFF860B9607A602B
:10027000FB70FB68002B00F0A480FB68FB61FB694E
:1002800093F807381A46BB689A42C0F09C80FB6915
:1002900093F808381A467B689A42C0F094807B68CD
:1002A0001B09FB767B6803F003037B617B6803F02B
:1002B0000F037B607B68C3F10F037B60BB68DB08C7
:1002C0009A007B689B081344DA00BB6803F00703BD
:1002D00013443B61FB78002B02D0012B38D073E034
:1002E00097F82830012B1AD1FA697B691B021A444E
:1002F0003B6913441B785AB2FB7E012101FA03F3D8
:100300005BB2DB435BB213405BB2D9B2FA697B6983
:100310001B021A443B6913440A461A7054E0FA69F6
:100320007B691B021A443B6913441B785AB2FB7E5B
:10033000012101FA03F35BB213435BB2D9B2FA694C
:100340007B691B021A443B6913440A461A703BE05E
:1003500097F82830002B1AD1FA697B691B021A44DE
:100360003B6913441B785AB2FB7E012101FA03F367
:100370005BB2DB435BB213405BB2D9B2FA697B6913
:100380001B021A443B6913440A461A701CE0FA69BE
:100390007B691B021A443B6913441B785AB2FB7EEB
:1003A000012101FA03F35BB213435BB2D9B2FA69DC
:1003B0007B691B021A443B6913440A461A7000BF4A
:1003C00002E000BF00E000BF2437BD4680BC70479C
:1003D00080B582B000AF394B7B607B68D3F81838AA
:1003E0000121184601F066FE7B6893F80938DBB2FC
:1003F000032B57D801A252F823F000BF0D040008C8
:1004000033040008590400087F0400087B680122B7
:1004100083F809287B68D3F810380021184601F0CA
:1004200049FE7B68D3F814380021184601F042FEDB
:1004300039E07B68D3F810380121184601F03AFE04
:100440007B68D3F814380021184601F033FE7B682E
:10045000022283F8092826E07B68D3F810380021AF
:10046000184601F027FE7B68D3F81438012118469E
:1004700001F020FE7B68032283F8092813E07B68E3
:10048000002283F809287B68D3F810380121184628
:1004900001F010FE7B68D3F814380121184601F0F2
:1004A00009FE00E000BF7B68D3F818380021184629
:1004B00001F000FE00BF0837BD4680BD30010020BE
:1004C00080B400AF054B93F80938DBB204331B024C
:1004D000024A13441846BD4680BC704730010020D4
:1004E00080B58AB002AFF860B9607A603B60FB68A3
:1004F000002B34D000F044FA0346FB75FA7D7B688C
:100500001344002B2DDB0023FB610023BB6120E0A3
:10051000BA68FB69D118BB693A6813441A7897F82E
:100520002C30009313467A68F86800F0EDF83861D3
:100530003B69002B07DDFA693B691344FB61FB69EA
:100540000133FB6102E03B69002B0CDBBB6901332B
:10055000BB6197F82820BB699A42D9DC04E000BF50
:1005600002E000BF00E000BF2037BD4680BD00BFF5
:1005700080B58CB002AFF860B9607A603B60FB6810
:10058000002B00F084803A6B7B68D31A7B623A6858
:10059000BB68D31A3B627B6A002B06DA7B6A5B423C
:1005A0007B624FF0FF33BB6101E00123BB613B6A1B
:1005B000002B06DA3B6A5B423B624FF0FF33FB6184
:1005C00001E00123FB617B6A5B007B623B6A5B00AD
:1005D0003B62B9687A6897F83400012300930346B8
:1005E000F868FFF73FFE3A6A7B6A9A4227DD3B6A6A
:1005F0005B107A6AD31A7B611CE07B69002B07DBF6
:100600007A68BB6913447B607A693B6AD31A7B6161
:10061000BA68FB691344BB607A697B6A13447B61E7
:10062000B9687A6897F83400012300930346F868A4
:10063000FFF718FEBA683B689A42DED128E07B6A71
:100640005B103A6AD31A3B611CE03B69002B07DB65
:10065000BA68FB691344BB603A697B6AD31A3B6191
:100660007A68BB6913447B603A693B6A13443B6117
:10067000B9687A6897F83400012300930346F86854
:10068000FFF7F0FD7A683B6B9A42DED100E000BFD5
:100690002837BD4680BD00BF80B588B002AFF86086
:1006A000B9607A603B60FB68002B15D0BB687B614A
:1006B0000DE097F8243001933B6A00937B697A68D8
:1006C0007969F868FFF754FF7B6901337B617A69C8
:1006D0003B689A42EDDD00E000BF1837BD4680BDA3
:1006E00080B485B000AF786039607B68002B06D09D
:1006F0007B68FB60FB683A68C3F8002800E000BF35
:100700001437BD4680BC704780B590B002AFF8602A
:10071000B9607A60FB70FB68002B01D10023DBE03D
:10072000FB68BB62BB6A93F807381A46BB689A42FB
:1007300006DBBB6A93F808381A467B689A4202DAED
:100740004FF0FF33C8E0FB7887F8273000F018F946
:10075000034687F8263097F82730202B16D1202122
:10076000F86800F0BDF83862BA683B6AD11897F8AB
:1007700026207B6813440122019200930B467A687D
:10078000B968F868FFF788FF3B6AA5E0BB6AD3F851
:10079000002897F8273003F18043203B9B00134447
:1007A0001B68FB61FB695B78FB7600237B638DE054
:1007B00097F82630082B4AD97B6B5B000333FA6924
:1007C00013441B783B833B8B1B023B837B6B5B009F
:1007D0000233FA6913441B789AB23B8B13433B8371
:1007E00000233B632DE03A8B3B6B42FA03F303F0AB
:1007F0000103002B11D0BA687B6B134419467A6849
:100800003B6B1344184697F840200123009313468E
:100810000246F868FFF726FD10E0BA687B6B1344C8
:1008200019467A683B6B1344184697F8402000231A
:10083000009313460246F868FFF714FD3B6B013343
:100840003B6397F826203B6B9A42CCDC3BE07B6B0A
:100850000233FA6913441B78FB820023FB622DE00C
:10086000FA8AFB6A42FA03F303F00103002B11D06A
:10087000BA687B6B134419467A68FB6A13441846BE
:1008800097F840200123009313460246F868FFF7CB
:10089000E9FC10E0BA687B6B134419467A68FB6A7E
:1008A0001344184697F8402000230093134602464D
:1008B000F868FFF7D7FCFB6A0133FB6297F8262044
:1008C000FB6A9A42CCDC7B6B01337B63FA7E7B6BE9
:1008D0009A423FF76DAFFB7E18463837BD4680BD64
:1008E00080B487B000AF78600B46FB707B68002B4C
:1008F00001D100231DE07B687B61FB78FB74002342
:10090000BB74FB7C1F2B03D997F91330002B01DA42
:10091000BB7C0EE07B69D3F80028FB7C03F18043AD
:10092000203B9B0013441B68FB60FB685B78BB7437
:10093000BB7C18461C37BD4680BC704780B584B070
:1009400000AF78600023FB600FE07B681B781946DE
:100950000A48FFF7C5FF0246FB681344FB607B684B
:1009600001337B60FB680133FB607B681B78002BE5
:10097000EBD1FB6818461037BD4680BD3001002022
:1009800080B483B000AF074BD3F800381B687B609E
:100990007B681B78FB70FB7818460C37BD4680BC23
:1009A000704700BF3001002080B485B000AF786090
:1009B00039600023FB817B681B88FB817B682E4AA2
:1009C000934213D07B682D4A93420FD07B68B3F1DA
:1009D000804F0BD07B682A4A934207D07B68294A14
:1009E000934203D07B68284A934208D1FB8923F0C5
:1009F0007003FB813B685A88FB891343FB817B684A
:100A0000224A93420CD07B68214A934208D0FB894A
:100A100023F44073FB813B68DA88FB891343FB8135
:100A20007B68FA891A803B689A887B689A853B685C
:100A30001A887B681A857B680F4A93420FD07B68BF
:100A40000E4A93420BD07B68124A934207D07B68D0
:100A5000114A934203D07B68104A934204D13B6809
:100A60001B7A9AB27B681A867B6801229A8200BF41
:100A70001437BD4680BC7047002C01400034014053
:100A80000004004000080040000C0040001000403E
:100A90000014004000400140004401400048014073
:100AA00080B485B000AF7860396000237B8100237B
:100AB000FB810023BB817B681B8C9BB223F010035E
:100AC0009AB27B681A847B681B8CFB817B689B884D
:100AD000BB817B681B8B7B817B8923F4E0437B811B
:100AE0007B8923F440737B813B681B881B029AB28D
:100AF0007B8913437B81FB8923F02003FB813B68C7
:100B00001B891B019AB2FB891343FB813B685B88FD
:100B10001B019AB2FB891343FB817B68224A9342F3
:100B200003D07B68214A93422BD1FB8923F08003B9
:100B3000FB813B685B891B019AB2FB891343FB81F4
:100B4000FB8923F04003FB813B689B881B019AB221
:100B5000FB891343FB81BB8923F48063BB81BB8981
:100B600023F40063BB813B689B899B009AB2BB89DD
:100B70001343BB813B68DB899B009AB2BB8913435B
:100B8000BB817B68BA899A807B687A891A833B68C3
:100B9000DA887B681A877B68FA891A8400BF143761
:100BA000BD4680BC704700BF002C014000340140AE
:100BB00080B485B000AF7860396000237B8100236A
:100BC000FB810023BB817B681B8C9BB223F4807369
:100BD0009AB27B681A847B681B8CFB817B689B883C
:100BE000BB817B689B8B7B817B8923F070037B813E
:100BF0007B8923F003037B813B681A887B8913433D
:100C00007B81FB8923F40073FB813B681B891B02FA
:100C10009AB2FB891343FB813B685B881B029AB243
:100C2000FB891343FB817B68224A934203D07B6894
:100C3000214A93422BD1FB8923F40063FB813B685B
:100C40005B891B029AB2FB891343FB81FB8923F466
:100C50008063FB813B689B881B029AB2FB8913432C
:100C6000FB81BB8923F48053BB81BB8923F40053F0
:100C7000BB813B689B891B019AB2BB891343BB8133
:100C80003B68DB891B019AB2BB891343BB817B683C
:100C9000BA899A807B687A899A833B68DA887B680C
:100CA0009A877B68FA891A8400BF1437BD4680BCD6
:100CB000704700BF002C01400034014080B483B075
:100CC00000AF78600B46FB70FB78002B08D07B6888
:100CD0001B889BB243F001039AB27B681A8007E03D
:100CE0007B681B889BB223F001039AB27B681A8051
:100CF00000BF0C37BD4680BC704700BF80B483B0D6
:100D000000AF78600B46FB70FB78002B0CD07B6843
:100D1000B3F844309BB26FEA43436FEA53439AB24D
:100D20007B68A3F8442009E07B68B3F844309BB2A9
:100D3000C3F30E039AB27B68A3F8442000BF0C37BC
:100D4000BD4680BC704700BF80B483B000AF786000
:100D50000B467B8013467B707B78002B08D07B682A
:100D60009B899AB27B8813439AB27B689A8109E087
:100D70007B689B899AB27B88DB439BB213409AB213
:100D80007B689A8100BF0C37BD4680BC704700BFAE
:100D900080B483B000AF78600B467B8013467B70D5
:100DA0007B78002B08D07B689B899AB27B881343A1
:100DB0009AB27B689A8109E07B689B899AB27B88AA
:100DC000DB439BB213409AB27B689A8100BF0C3719
:100DD000BD4680BC704700BF80B483B000AF786070
:100DE0000B467B807B88DB439AB27B681A8200BF0C
:100DF0000C37BD4680BC704780B483B000AF7860CC
:100E00000B46FB70FB78002B06D00949084B5A684B
:100E10007B6813434B6006E00549054B5A687B68C5
:100E2000DB4313404B6000BF0C37BD4680BC7047AE
:100E3000002004E080B500AF154A154B1B6843F055
:100E4000010313601249124B5A68124B13404B6056
:100E50000F4A0F4B1B6823F0847323F48033136015
:100E60000B4A0B4B1B6823F480231360084A084B82
:100E70005B6823F4FE035360054B4FF41F029A6036
:100E800000F078F8044B4FF000629A6000BF80BD1C
:100E9000001002400000FFF800ED00E080B485B0D3
:100EA00000AF0023FB600023BB6000237B602C4B62
:100EB0005B6803F00C03FB60FB68042B07D0082B76
:100EC00009D0002B33D1274B274A1A6033E0254B3A
:100ED000254A1A602FE0224B5B6803F47013BB6055
:100EE0001F4B5B6803F480337B60BB689B0C023351
:100EF000BB607B68002B06D1BB681C4A02FB03F376
:100F0000184A136017E0164B5B6803F40033002B9C
:100F100006D0BB68154A02FB03F3124A13600AE0CD
:100F2000BB68114A02FB03F30E4A136003E00D4B4A
:100F30000D4A1A6000BF0A4B5B6803F0F0031B09FF
:100F40000B4AD35CDBB2FB60064B1A68FB6822FAE3
:100F500003F3044A136000BF1437BD4680BC7047DA
:100F6000001002400000002000127A0000093D003D
:100F70000400002080B500AF00F002F800BF80BD83
:100F800080B483B000AF00237B6000233B603A4A0B
:100F9000394B1B6843F480331360374B1B6803F4F1
:100FA00000333B607B6801337B603B68002B03D1DF
:100FB0007B68B3F5A06FF0D12F4B1B6803F40033AF
:100FC000002B02D001233B6001E000233B603B6823
:100FD000012B4BD1294A294B1B6843F010031360A6
:100FE000264A264B1B6823F003031360234A234B36
:100FF0001B6843F0020313601F4A1F4B5B6853607A
:101000001D4A1D4B5B6853601B4A1B4B5B6843F4D6
:1010100080635360184A184B5B6823F47C13536059
:10102000154A154B5B6843F4E8135360124A124BA0
:101030001B6843F08073136000BF0F4B1B6803F005
:101040000073002BF9D00C4A0B4B5B6823F00303B1
:101050005360094A084B5B6843F00203536000BFCA
:10106000054B5B6803F00C03082BF9D100BF0C376C
:10107000BD4680BC704700BF001002400020024007
:1010800080B582B000AF114B7B60114B3B6007E035
:101090003B681A1D3A607A68111D796012681A60FF
:1010A0003B680C4A9342F3D30B480C494FF00002C3
:1010B0008842B8BF40F8042BFADBFFF7BBFE00F014
:1010C00003FB00BF0837BD4680BD00BFBC670008FA
:1010D000000000207000002070000020E0110020BF
:1010E00080B400AFFEE700BF80B489B000AF786085
:1010F00039600023FB6100233B610023BB610023B7
:10110000FB6000237B610023BB603B68DB7803F05E
:101110000F03FB613B68DB7803F01003002B05D065
:101120003B689B781A46FB691343FB613B681B884D
:10113000DBB2002B44D07B681B687B610023BB6162
:1011400038E00122BB6902FA03F3FB603B681B88AD
:101150001A46FB6813403B613A69FB689A4226D104
:10116000BB699B00FB600F22FB6802FA03F3BB60C4
:10117000BB68DB437A6913407B61FA69FB6802FA5A
:1011800003F37A6913437B613B68DB78282B05D135
:101190000122BB699A407B685A6108E03B68DB78B2
:1011A000482B04D10122BB699A407B681A61BB6954
:1011B0000133BB61BB69072BC3D97B687A691A60AD
:1011C0003B681B88FF2B46D97B685B687B610023EB
:1011D000BB613AE0BB690833012202FA03F3FB600A
:1011E0003B681B881A46FB6813403B613A69FB6801
:1011F0009A4227D1BB699B00FB600F22FB6802FA71
:1012000003F3BB60BB68DB437A6913407B61FA6917
:10121000FB6802FA03F37A6913437B613B68DB786E
:10122000282B05D1BB69083301229A407B685A619B
:101230003B68DB78482B05D1BB69083301229A4013
:101240007B681A61BB690133BB61BB69072BC1D9DC
:101250007B687A695A6000BF2437BD4680BC7047FE
:1012600080B483B000AF78600B467B807A887B685F
:101270001A6100BF0C37BD4680BC704780B483B094
:1012800000AF78600B467B807A887B685A6100BF2C
:101290000C37BD4680BC704780B483B000AF0346B6
:1012A000FB71084997F907305B09FA7902F01F02D0
:1012B000012000FA02F241F8232000BF0C37BD469E
:1012C00080BC704700E100E080B483B000AF03460B
:1012D0003960FB7197F90730002B0BDA0D49FB7968
:1012E00003F00F03043B3A68D2B21201D2B20B44AE
:1012F0001A7609E0084997F907303A68D2B2120124
:10130000D2B20B4483F8002300BF0C37BD4680BC2B
:10131000704700BF00ED00E000E100E080B483B062
:1013200000AF03463960FB71FB79303B362B00F28E
:10133000B18001A252F823F0151400081D14000812
:10134000251400082D140008351400083D14000869
:10135000451400084D140008551400085D140008D9
:1013600095140008951400089514000895140008B9
:1013700095140008951400089514000865140008D9
:101380006D140008751400087D1400088514000809
:101390008D14000895140008951400089514000891
:1013A0009514000895140008951400089514000879
:1013B0009514000895140008951400089514000869
:1013C0009514000895140008951400089514000859
:1013D0009514000895140008951400089514000849
:1013E0009514000895140008951400089514000839
:1013F0009514000895140008951400086514000859
:101400006D140008751400087D1400088514000888
:101410008D1400083B6800221A703DE03B680122F1
:101420001A7039E03B6802221A7035E03B680322EB
:101430001A7031E03B6804221A702DE03B680522E7
:101440001A7029E03B6806221A7025E03B680722E3
:101450001A7021E03B6808221A701DE03B680922DF
:101460001A7019E03B680A221A7015E03B680B22DB
:101470001A7011E03B680C221A700DE03B680D22D7
:101480001A7009E03B680E221A7005E03B680F22D3
:101490001A7001E0002300E0012318460C37BD4616
:1014A00080BC704780B582B000AF40F2255136480D
:1014B00001F07EF80346012B62D1334801F068F851
:1014C0000346FB71FB79242B44D1304B1B68002B66
:1014D00036D000233B712D4B1B68023B2C4AD35C5A
:1014E0003A1D11461846FFF719FF0346002B27D077
:1014F0003B791B01BB71254B1B68013B244AD35C24
:101500003A1D11461846FFF709FF0346002B17D076
:101510003A79BB791343BB711C4B1B68023B1946DC
:101520001B4800F03BF803467B71BA797B799A42FD
:1015300006D11749174801F015FD174B01221A7003
:101540004FF480620021124801F0BEFC0F4B0022D4
:101550001A6015E00D4B1B685A1C0C490A600C49B7
:10156000FA79CA54094B1B68B3F5806F08D34FF45E
:1015700080620021064801F0A7FC044B00221A609B
:1015800000BF0837BD4680BD003801407400002010
:10159000580900208C0D00207000002080B485B018
:1015A00000AF786039600023FB730023BB6009E063
:1015B000BB687A6813441A78FB7B5340FB73BB68A3
:1015C0000133BB60BA683B689A42F1DBFB7B18468B
:1015D0001437BD4680BC704780B582B000AF03466B
:1015E000FB8045F2555001F0B1FB032001F0BEFB3A
:1015F000FA8813469B001344002B00DA03339B1038
:101600009BB2184601F0C2FB01F0D0FB01F0DAFBFF
:1016100000BF0837BD4680BD80B500AF7D2000F01B
:10162000ADFB0346002B03D000F0E2FB012300E0FA
:101630000023184680BD00BF80B483B000AF78603F
:101640007B681B680F4A13607B685B680E4A1360F7
:101650007B689B680D4A13607B68DB680C4A1360EB
:101660007B681B690B4A13607B685B690A4A1360DD
:101670007B689B69094A13607B68DB69084A1360D1
:10168000FEE700BF540900208C110020780D0020D7
:1016900050090020880D0020740D00207C0D0020D2
:1016A000800D002080B400AF1EF0040F0CBFEFF3DC
:1016B0000880EFF309808169004A10473916000855
:1016C00000BFBD4680BC704790B5ADF51F7D02AF31
:1016D00001214FF4A850FFF78FFBFFF7DFFBFFF767
:1016E0009BFF4FF47A70FFF777FF02210320FEF78C
:1016F0000DFD0246BC4B1A60BB4B1B681846FEF73B
:101700008BFDB94B1C680C2000F0DCF90346194630
:101710002046FEF7E5FFB548FFF710F9C7F8480285
:10172000D7F84832C3F14003DA0F13445B10C7F80F
:101730004432AD4B18680023019307230093AB4B51
:101740001022D7F84412FEF7CBFEA948FFF7F6F8AF
:10175000C7F84802D7F84832C3F14003DA0F134400
:101760005B10C7F84432A04B1B681846FEF766FDB5
:1017700001F0C4F90121042000F0C4FA042387F821
:1017800037324FF48063A7F83432032387F83632B8
:1017900007F50D7319469748FFF7A6FC4FF416534B
:1017A000C7F824320023A7F830320423A7F82E32DA
:1017B0000023A7F82C320023A7F82A320023A7F829
:1017C000283201214FF4804000F09CFA07F509739C
:1017D0001946894800F0BAFD012240F22551864899
:1017E00000F08EFE2520FFF757FD1E212520FFF774
:1017F0006BFD0121804800F063FE01F0D7FA7F4BBA
:101800001B78DBB2012BF8D17C4B00221A7007F158
:1018100024034FF400720021184601F055FB78486C
:1018200001F0FEFB0346C7F86C32D7F86C3203F0C8
:101830000103002B40F03B810023C7F868320023EE
:10184000C7F8643207F1230300221A7047E0D7F883
:1018500064325A1CC7F86422694AD35C07F1230238
:1018600011461846FFF75AFD0346002B0BD007F12F
:1018700023031B781B01D9B207F12402D7F8683281
:1018800013440A461A70D7F864325A1CC7F8642207
:101890005B4AD35C07F1230211461846FFF73EFD71
:1018A0000346002B11D007F12402D7F86832134405
:1018B0001A7807F123031B781343D9B207F12402E6
:1018C000D7F8683213440A461A70D7F868320133E1
:1018D000C7F86832D7F86C32013BC7F86C32D7F8DA
:1018E0006C325A1EC7F86C22002BB0D107F12403CA
:1018F0001B78012B00D0D3E007F124035B78C7F8F5
:1019000040320223C7F86032374B1B681846FEF797
:1019100083FC0023C7F85C320123C7F85832002348
:10192000C7F85432A8E0D7F860325A1CC7F86022D2
:1019300007F12402D35CC7F83C32D7F860325A1C56
:10194000C7F8602207F12402D35CC7F85032264B57
:101950001C68D7F83C0200F0B5F80346194620464B
:10196000FEF7BEFE3B1D1E220021184601F0ACFA18
:10197000D7F850321D2B0DDD07F12402D7F8603265
:10198000D1183B1D1D22184601F078FB1D23C7F816
:1019900050320AE007F12402D7F86032D118D7F8A4
:1019A00050223B1D184601F069FB0023C7F84C325A
:1019B0003B1D184601F034FB0246D7F850329A42DC
:1019C00003D20023C7F858325DE03B1D1846FEF7EE
:1019D000B5FF034687F83B3297F83B323F2B11D9CE
:1019E0000023C7F84C3216E0700D002018000020CC
:1019F0002000002000080140003801407000002055
:101A00008C0D002097F83B32C3F14003DA0F1344EA
:101A10005B10C7F84C32274B1868D7F85032DBB24E
:101A2000391D0022019200930B46D7F85C22D7F8AB
:101A30004C12FEF755FDD7F86022D7F85032134408
:101A4000C7F86032FEF79CFF03461A4613461B0197
:101A50009B1A194A82FB03125211DB17D21AD7F8CC
:101A60003C321344D7F85C221344C7F85C32D7F8F1
:101A700054320133C7F85432D7F85422D7F84032E1
:101A80009A42FFF650AFD7F85832002B04D0094BDA
:101A90001B681846FEF7D2FB084B00221A7000BFE5
:101AA0004FF480620021064801F00EFAA5E600BF5F
:101AB000A3E600BF700D00201F85EB5170000020D1
:101AC0008C0D002080B485B000AF78601E4BFB60A9
:101AD0007B68073B092B2FD801A252F823F000BFE7
:101AE000091B00080F1B0008151B00081B1B000822
:101AF000211B0008271B00082D1B00082D1B0008B8
:101B0000331B0008331B0008104BFB6015E0104B23
:101B1000FB6012E00F4BFB600FE00F4BFB600CE033
:101B20000E4BFB6009E00E4BFB6006E00D4BFB60CB
:101B300003E0054BFB6000E000BFFB68184614376C
:101B4000BD4680BC704700BF3C66000834340008C6
:101B5000E8390008AC3F00089C460008A44D000886
:101B600068550008505D000880B487B000AF786009
:101B700000237B6100233B610023FB600023BB60EB
:101B80004C4B5B6803F00C037B617B69042B07D033
:101B9000082B09D0002B33D17B68474A1A6033E009
:101BA0007B68454A1A602FE0424B5B6803F4701370
:101BB0003B61404B5B6803F48033FB603B699B0CEB
:101BC00002333B61FB68002B06D13B693B4A02FBB9
:101BD00003F27B681A6017E0364B5B6803F400334E
:101BE000002B06D03B69354A02FB03F27B681A6082
:101BF0000AE03B69304A02FB03F27B681A6003E0AB
:101C00007B682D4A1A6000BF2A4B5B6803F0F00323
:101C10007B617B691B097B61294A7B6913441B78C3
:101C2000DBB2BB607B681A68BB68DA407B685A60CD
:101C3000204B5B6803F4E0637B617B691B0A7B617B
:101C40001F4A7B6913441B78DBB2BB607B685A6810
:101C5000BB68DA407B689A60164B5B6803F460539C
:101C60007B617B69DB0A7B61154A7B6913441B78C6
:101C7000DBB2BB607B685A68BB68DA407B68DA60BD
:101C80000C4B5B6803F440437B617B699B0B7B617E
:101C90000C4A7B6913441B78DBB2BB607B68DA6853
:101CA000BB68B2FBF3F27B681A6100BF1C37BD460C
:101CB00080BC70470010024000127A0000093D000D
:101CC0005C0000206C00002080B483B000AF78601E
:101CD0000B46FB70FB78002B06D00949084B5A696C
:101CE0007B6813434B6106E00549054B5A697B68E5
:101CF000DB4313404B6100BF0C37BD4680BC7047CF
:101D00000010024080B483B000AF78600B46FB70D7
:101D1000FB78002B06D00949084B9A697B6813436E
:101D20008B6106E00549054B9A697B68DB431340EC
:101D30008B6100BF0C37BD4680BC7047001002406D
:101D400080B483B000AF78600B46FB70FB78002B4B
:101D500006D00949084BDA697B681343CB6106E07A
:101D60000549054BDA697B68DB431340CB6100BF53
:101D70000C37BD4680BC70470010024080B487B06D
:101D800000AF0346FB710023FB6000237B6100234F
:101D9000FB74FB795B09DBB2FB60FB68012B03D1B1
:101DA000124B1B687B6109E0FB68022B03D10F4BD0
:101DB0001B6A7B6102E00D4B5B6A7B61FB7903F080
:101DC0001F03FB607A69FB6822FA03F303F0010347
:101DD000002B02D00123FB7401E00023FB74FB7C89
:101DE00018461C37BD4680BC704700BF001002403B
:101DF00080B400AF044A044B5B6A43F080735362C3
:101E000000BFBD4680BC70470010024080B485B062
:101E100000AF0346FB710023FB60FB79062B26D83D
:101E200001A252F823F000BF451E00084B1E000817
:101E3000511E0008571E00085D1E0008631E0008A2
:101E4000691E00080D4BFB6012E00D4BFB600FE0BC
:101E50000C4BFB600CE00C4BFB6009E00B4BFB6098
:101E600006E00B4BFB6003E00A4BFB6000E000BFA9
:101E7000FB6818461437BD4680BC70470008014017
:101E8000000C014000100140001401400018014006
:101E9000001C01400020014080B485B000AF034623
:101EA000FB711023FB81FB790F2B5BD801A252F849
:101EB00023F000BFF51E0008FB1E0008011F0008EC
:101EC000071F00080D1F0008131F0008191F000836
:101ED0001F1F0008251F00082D1F0008351F0008C0
:101EE0003D1F0008451F00084D1F0008551F000832
:101EF0005D1F00080123FB8135E00223FB8132E0F6
:101F00000423FB812FE00823FB812CE01023FB81BD
:101F100029E02023FB8126E04023FB8123E080236E
:101F2000FB8120E04FF48073FB811CE04FF40073D1
:101F3000FB8118E04FF48063FB8114E04FF40063F1
:101F4000FB8110E04FF48053FB810CE04FF4005311
:101F5000FB8108E04FF48043FB8104E04FF4004331
:101F6000FB8100E000BFFB8918461437BD4680BCEA
:101F7000704700BF80B485B000AF0346FB711023EB
:101F8000FB73FB79002B02D0012B03D005E010235B
:101F9000FB7302E00423FB7300BFFB7B184614377E
:101FA000BD4680BC704700BF80B485B000AF03461B
:101FB000FB710023FB60FB79062B27D801A252F8A6
:101FC00023F000BFE11F0008E71F0008ED1F000815
:101FD000F31F0008F91F0008FF1F00080520000874
:101FE0000423FB6012E00823FB600FE01023FB607A
:101FF0000CE02023FB6009E04023FB6006E0802327
:10200000FB6003E04FF48073FB6000BFFB68184681
:102010001437BD4680BC704780B586B000AF03461C
:10202000FB710B46BB7113467B71204B1A68531C26
:102030001E490B6013465B0013441D4A13447B6129
:102040007B69002B01D100232BE07B69FA795A7060
:102050007B69BA791A707B697A799A70FB7918462C
:10206000FFF7D4FE38617B791846FFF783FF0346FC
:10207000FB73BB791846FFF70FFF0346BB810323B1
:10208000BB73FB791846FFF78FFF03460121184603
:10209000FFF738FE07F10C0319463869FFF724F8FB
:1020A0007B6918461837BD4680BD00BF7800002008
:1020B0009011002090B585B000AF78600B46FB70A2
:1020C0007B68FB60FB689B78012B24D0FB78012B9D
:1020D00010D1FB685B781846FFF798FE0446FB6852
:1020E0001B781846FFF7D8FE034619462046FFF72F
:1020F000B7F811E0FB685B781846FFF787FE0446E7
:10210000FB681B781846FFF7C7FE034619462046B2
:10211000FFF7B4F800E000BF1437BD4690BD00BF24
:1021200080B586B000AF00237B61484B1B68002B55
:102130007CD1474B1B6801333B61454A3B691360C7
:102140003B69002B10D1434B1B68FB60424B1B6863
:10215000404A1360404AFB681360404B1B680133E0
:102160003E4A136000F0CEF83D4B1B683A699A4234
:102170004DD3384B1B681B68002B01D1012300E0B5
:102180000023002B04D0364B4FF0FF321A603EE0A4
:10219000304B1B68DB68DB68BB60BB685B687B60DF
:1021A0003A697B689A4203D22D4A7B6813602EE01D
:1021B000BB680433184600F079FABB689B6A002BB1
:1021C00004D0BB681833184600F070FABB68DB6AAD
:1021D00001229A40234B1B681343224A1360BB68B9
:1021E000DA6A13469B0013449B001F4A1A44BB68DB
:1021F00004331946104600F035FABB68DA6A1B4B07
:102200001B68DB6A9A42B4D301237B61B1E7174BA9
:102210001B68DA6A144913469B0013449B000B4465
:102220001B68012B07D901237B6104E0104B1B685D
:1022300001330F4A13600F4B1B68002B01D00123A1
:102240007B617B6918461837BD4680BD2801002098
:1022500004010020E4000020E80000201801002014
:102260002001002008010020800000207C000020C8
:10227000100100201401002080B485B000AF1C4B79
:102280001B68002B03D01B4B01221A602AE0194B5C
:1022900000221A60184B1B687B607B68B3FA83F3DB
:1022A000FB70FB78C3F11F03FB60FA6813469B00C9
:1022B00013449B00114A1344BB60BB685B685A68B7
:1022C000BB685A60BB685A68BB6808339A4204D13D
:1022D000BB685B685A68BB685A60BB685B68DB6850
:1022E000074A136000BF1437BD4680BC704700BF6B
:1022F0002801002014010020080100208000002097
:102300007C00002080B483B000AF0E4B1B681B68BC
:10231000002B01D1012300E00023002B04D00A4B45
:102320004FF0FF321A6008E0064B1B68DB68DB6881
:102330007B607B685B68044A136000BF0C37BD4656
:1023400080BC7047E40000202001002080B58CB0E4
:1023500000AF786039600023FB620023BB6200237A
:102360007B6200233B620023FB617B68FB617B682F
:102370001B8A9BB2FB62FA6A4CF6FF731340FB6246
:102380003B68DB881A46FB6A1343FB62FB6A9AB21E
:102390007B681A827B689B899BB2FB62FA6A4EF665
:1023A000F3131340FB623B689A883B681B89134315
:1023B0009AB23B685B8913439BB21A46FB6A13438C
:1023C000FB62FB6A9AB27B689A817B689B8A9BB2AC
:1023D000FB62FA6A4FF6FF431340FB623B689B893E
:1023E0001A46FB6A1343FB62FB6A9AB27B689A82C5
:1023F00007F108031846FFF7B7FBFB692E4A934223
:1024000002D17B69BB6201E03B69BB627B689B894F
:102410009BB21BB2002B0CDABA6A13469B00134422
:102420009A001A443B681B685B00B2FBF3F37B62C3
:102430000BE0BA6A13469B0013449A001A443B68A7
:102440001B689B00B2FBF3F37B627B6A1B4AA2FB17
:1024500003235B091B01FB62FB6A1B09642202FB6D
:1024600003F37A6AD31A3B627B689B899BB21BB2E7
:10247000002B0CDA3B6ADB003233104AA2FB032349
:102480005B0903F00703FA6A1343FB620BE03B6A44
:102490001B013233094AA2FB03235B0903F00F033C
:1024A000FA6A1343FB62FB6A9AB27B681A8100BF27
:1024B0003037BD4680BD00BF003801401F85EB515D
:1024C00080B483B000AF78600B46FB70FB78002BC4
:1024D00008D07B689B899BB243F400539AB27B6817
:1024E0009A8107E07B689B899BB223F400539AB2E0
:1024F0007B689A8100BF0C37BD4680BC704700BF27
:1025000080B487B000AF78600B467B8013467B7049
:1025100000233B610023FB600023BB6000237B6141
:102520007B687B617B88DBB25B09DBB23B617B88CC
:1025300003F01F03FB600122FB6802FA03F3BB6098
:102540003B69012B03D17B690C337B6109E03B695B
:10255000022B03D17B6910337B6102E07B6914336A
:102560007B617B78002B06D07B697A691168BA6839
:102570000A431A6006E07B697A691168BA68D24337
:102580000A401A6000BF1C37BD4680BC704700BFC0
:1025900080B483B000AF78607B689B889BB2C3F344
:1025A00008039BB218460C37BD4680BC704700BF7D
:1025B00080B487B000AF78600B467B800023FB605F
:1025C00000237B610023BB600023FB747B88DBB2AC
:1025D0005B09DBB2BB607B8803F01F037B610122D8
:1025E0007B6902FA03F37B61BB68012B07D17B682F
:1025F0009B899BB21A467B6913407B6111E0BB68E3
:10260000022B07D17B681B8A9BB21A467B69134059
:102610007B6106E07B689B8A9BB21A467B6913400C
:102620007B617B881B0A9BB2FB600122FB6802FA7C
:1026300003F3FB607B681B889BB21A46FB68134060
:10264000FB607B69002B05D0FB68002B02D00123C7
:10265000FB7401E00023FB74FB7C18461C37BD466D
:1026600080BC704780B485B000AF786039607B680B
:102670005B68FB603B68FA685A60FB689A683B6875
:102680009A60FB689B683A685A60FB683A689A608F
:102690003B687A681A617B681B685A1C7B681A6001
:1026A00000BF1437BD4680BC704700BF80B485B002
:1026B00000AF78607B681B69FB607B685B687A6849
:1026C00092689A607B689B687A6852685A60FB6877
:1026D0005A687B689A4203D17B689A68FB685A60A3
:1026E0007B6800221A61FB681B685A1EFB681A602F
:1026F000FB681B6818461437BD4680BC704700BF96
:1027000080B400AF0A4B19680868B0E8F00F80F396
:102710000988BFF36F8F4FF0000080F311884EF0EF
:102720000D0E7047AFF30080AFF30080AFF3008071
:102730007C00002000BFBD4680BC70470000000048
:1027400080B400AFEFF30980BFF36F8F104B1A68AE
:1027500020E9F00F10602DE908404FF0BF0080F332
:102760001188FFF789FD4FF0000080F31188BDE864
:10277000084019680868B0E8F00F80F30988BFF3D3
:102780006F8F7047AFF30080AFF30080AFF300802E
:102790007C00002000BFBD4680BC704780B582B081
:1027A00000AF4FF0BF0383F31188BFF36F8FBFF308
:1027B0004F8F3B60FFF7B4FC0346002B03D0064B62
:1027C0004FF080521A6000237B607B6883F311888E
:1027D00000BF0837BD4680BD04ED00E080B483B083
:1027E00000AF78607B681A684FF6FE7313407A6812
:1027F00013607B6800221A607B6800225A607B6845
:1028000000229A607B680022DA607B68434A934228
:1028100006D1434A424B5B6843F00F03536077E0B5
:102820007B68404A934206D13D4A3D4B5B6843F08A
:10283000F00353606CE07B683B4A934206D1384A10
:10284000374B5B6843F47063536061E07B68374AE1
:10285000934206D1324A324B5B6843F47043536073
:1028600056E07B68324A934206D12D4A2C4B5B6876
:1028700043F4702353604BE07B682E4A934206D1A9
:10288000274A274B5B6843F47003536040E07B6842
:10289000294A934206D1224A214B5B6843F0706378
:1028A000536035E07B68254A934206D1244A244B85
:1028B0005B6843F00F0353602AE07B68214A934230
:1028C00006D11F4A1E4B5B6843F0F00353601FE0C4
:1028D0007B681D4A934206D1194A194B5B6843F441
:1028E0007063536014E07B68184A934206D1144A1F
:1028F000134B5B6843F47043536009E07B68144AF0
:10290000934205D10E4A0E4B5B6843F4702353602B
:1029100000BF0C37BD4680BC704700BF08000240B6
:10292000000002401C00024030000240440002400F
:10293000580002406C00024080000240080402403F
:10294000000402401C0402403004024044040240DF
:102950005804024080B485B000AF7860396000232D
:10296000FB607B681B68FB60FB6823F4FF4323F07C
:102970007003FB603B689A683B681B6A1A433B68BC
:102980001B691A433B685B691A433B689B691A439E
:102990003B68DB691A433B685B6A1A433B689B6A86
:1029A0001343FA681343FB607B68FA681A603B685C
:1029B000DA687B685A603B681A687B689A603B6893
:1029C0005A687B68DA6000BF1437BD4680BC704728
:1029D00080B483B000AF78600B46FB70FB78002BAF
:1029E00006D07B681B6843F001027B681A6006E032
:1029F0007B681A684FF6FE7313407A68136000BF55
:102A00000C37BD4680BC704780B485B000AFF8601D
:102A1000B9601346FB71FB79002B06D0FB681A687E
:102A2000BB681A43FB681A6006E0FB681A68BB685B
:102A3000DB431A40FB681A6000BF1437BD4680BCF8
:102A4000704700BF80B483B000AF78607B6803F04C
:102A50008053002B03D0064A7B68536002E0054A8E
:102A60007B68536000BF0C37BD4680BC704700BF19
:102A7000000402400000024080B483B000AF03466F
:102A8000FB71084997F907305B09FA7902F01F02D8
:102A9000012000FA02F241F8232000BF0C37BD46A6
:102AA00080BC704700E100E080B483B000AF034613
:102AB0003960FB7197F90730002B0BDA0D49FB7970
:102AC00003F00F03043B3A68D2B21201D2B20B44B6
:102AD0001A7609E0084997F907303A68D2B212012C
:102AE000D2B20B4483F8002300BF0C37BD4680BC34
:102AF000704700BF00ED00E000E100E080B584B069
:102B000000AF01210220FFF71BF901214FF4006003
:102B1000FFF7F8F801210C20FFF7F4F80323BB704E
:102B200044F201033B801823FB703B46194647489B
:102B3000FEF7DAFA464BB3221A80454B1B88013B5D
:102B40001A46322303FB02F3424AA2FB03235B092A
:102B5000FB810123BB800023FB803D4B1B883B8115
:102B600000237B8100233B733B1D19463A48FDF748
:102B70001BFF3A4B4BF67F321A800223BB80374B48
:102B80001B883B8100237B8100233B733B1D19463F
:102B90003348FDF709FF334B60221A80314B012285
:102BA0005A80304B00229A802E4AFB89D3802D4BCD
:102BB00002221A812B4B00229A812A492648FDF7CE
:102BC000F7FF264B1B88013B1A4613469B00134414
:102BD000DB001A461F4BA3FB02235B09FB81214B41
:102BE00004229A801F4B00225A801E4B08225A81D1
:102BF0001C4AFB89D3801B491948FDF751FF01226C
:102C00004FF400711448FEF7C3F801211248FEF793
:102C100075F801211248FEF771F801211048FEF7FE
:102C2000DBF8012201210E48FEF78EF80C21192055
:102C3000FFF73AFF1920FFF71FFF01210848FEF7B1
:102C40003DF800BF1037BD4680BD00BF000C0140FD
:102C50002C0100201F85EB5100040040CC11002006
:102C6000002C0140D011002080B58EB000AF7860FC
:102C70002048FFF7B3FD01210120FFF725F81E4B87
:102C8000FB607B683B6110237B6140F20113BB61F9
:102C90000023FB6180233B6200237B620023BB6235
:102CA0000023FB624FF400533B6300237B6307F177
:102CB0000C0319460F48FFF74DFE4FF40010FFF7C5
:102CC000C1FE012202210B48FFF79EFE01210948A7
:102CD000FFF77EFE0D211020FFF7E6FE1020FFF724
:102CE000CBFE01210548FDF7E9FF00BF3837BD469F
:102CF00080BD00BF6C0002400C0801400004004091
:102D000080B500AF4FF40010FFF79CFE002104488F
:102D1000FDF7D4FF00210348FFF75AFE00BF80BD36
:102D2000000400406C00024080B500AF012106485D
:102D3000FEF752F8FDF74CFBFDF7C2FB03461846C1
:102D4000FFF792FF00BF80BD002C014080B483B02C
:102D500000AF0346FB80044AFB88136000BF0C37BA
:102D6000BD4680BC704700BF0030004080B483B0D7
:102D700000AF0346FB71044AFB79536000BF0C3778
:102D8000BD4680BC704700BF0030004080B483B0B7
:102D900000AF0346FB80044AFB88936000BF0C37FA
:102DA000BD4680BC704700BF0030004080B400AF1B
:102DB000034B4AF6AA221A6000BFBD4680BC70478A
:102DC0000030004080B400AF034B4CF6CC421A6098
:102DD00000BFBD4680BC704700300040844641EAD9
:102DE000000313F0030349D1403A23D30B68036077
:102DF0004B6843608B688360CB68C3600B69036179
:102E00004B6943618B698361CB69C3610B6A036260
:102E10004B6A43628B6A8362CB6AC3620B6B036348
:102E20004B6B43638B6B8363CB6BC363403040312D
:102E3000403ADBD230320BD30B6803604B684360FF
:102E40008B688360CB68C36010301031103AF3D2C6
:102E50000C3205D351F8043B40F8043B043AF9D254
:102E6000043208D0D2071CBF11F8013B00F8013B27
:102E700001D30B8803806046704700BF082A13D334
:102E80008B07B1D010F00303AED0C3F10403D21A04
:102E9000DB071CBF11F8013B00F8013BA4D331F85C
:102EA000023B20F8023B9FE7043AD9D3013A11F8DC
:102EB000013B00F8013BF9D20B7803704B7843706B
:102EC0008B7883706046704770B4840746D0541E78
:102ED000002A41D0CDB2034602E0621EE4B314469C
:102EE00003F8015B9A07F8D1032C2ED9CDB245EA3D
:102EF00005250F2C45EA054519D9264603F1100290
:102F0000103E0F2E42F8105C42F80C5C42F8085C50
:102F100042F8045C02F11002F2D8A4F1100222F08F
:102F20000F0204F00F041032032C13440DD91E4677
:102F30002246043A032A46F8045BFAD8221F22F0FC
:102F400003020432134404F003042CB1C9B21C443C
:102F500003F8011BA342FBD170BC70471446034623
:102F6000C2E700BF80EA0102844612F0030F4FD18E
:102F700011F0030F32D14DF8044D11F0040F51F848
:102F8000043B0BD0A3F101329A4312F0803F04BFFF
:102F90004CF8043B51F8043B16D100BF51F8044BE8
:102FA000A3F101329A4312F0803FA4F101320BD118
:102FB0004CF8043BA24312F0803F04BF51F8043B9D
:102FC0004CF8044BEAD023460CF8013B13F0FF0FFA
:102FD0004FEA3323F8D15DF8044B704711F0010F2D
:102FE00006D011F8012B0CF8012B002A08BF7047FE
:102FF00011F0020FBFD031F8022B12F0FF0F16BFF5
:103000002CF8022B8CF8002012F47F4FB3D17047BC
:1030100011F8012B0CF8012B002AF9D1704700BFE1
:1030200020F0030110F00300C0F1000051F8043B50
:1030300000F1040C4FEACC0C6FF000021CBF22FA26
:103040000CF213434FF0010C4CEA0C2C4CEA0C4CE4
:10305000A3EB0C0222EA030212EACC1204BF51F8DD
:10306000043B0430F4D0C2F1000102EA0102B2FADA
:1030700082F2C2F11F0200EBD200704740EA010366
:103080009B0770B42BD1032A29D90C46034621464D
:1030900054F8046BA6F1013525EA060515F0803FCA
:1030A00006D1043A032A43F8046B2146EFD8A2B1B3
:1030B0000C78013A1C70013101333CB16AB111F84E
:1030C000014B013A03F8014B002CF7D12AB11A4405
:1030D000002103F8011B9A42FBD170BC70470346E4
:1030E000E5E700BF4D64204D61686D7564756C2027
:1030F000486173616E2053756D6F6E2E0000000085
:103100004A414E5541525900464542525541525945
:10311000000000004D415243480000004150524918
:103120004C0000004D4159004A554E45000000003A
:103130004A554C5900000000415547555354000072
:1031400053455054454D4245520000004F43544FA3
:10315000424552004E4F56454D4245520000000038
:10316000444543454D424552000000000701000020
:1031700007015E0007030600060000000705247E25
:10318000247E240007052C4A7E4A34000706462682
:10319000106864020706344A5C20504007010600AC
:1031A000070318244200000007034224180000000F
:1031B00007052A1C3E1C2A00070508083E080800CF
:1031C00007024020070308080800000007026060AB
:1031D000070360180600000007053C62524A3C00E5
:1031E0000703447E4000000007054462524A440041
:1031F000070522424A4E320007051018147E1000BF
:1032000007052E4A4A4A320007053C4A4A4A30001E
:1032100007050262120A06000705344A4A4A3400CA
:103220000705044A4A4A3C000701240007024024DB
:1032300007031824420000000704141414140000AB
:10324000070342241800000007040402520C000087
:1032500007063C425A5A5A4C07057C1212127C004F
:1032600007057E4A4A4A340007053C424242240090
:1032700007057E4242423C0007057E4A4A4A420018
:1032800007057E0A0A0A020007053C4252527400F2
:1032900007047E10107E00000703427E42000000FB
:1032A00007052040423E020007057E081824420020
:1032B00007057E404040400007057E0408047E006C
:1032C00007057E0408107E0007053C4242423C0090
:1032D00007057E0A0A0A040007053C4252225C00E8
:1032E00007057E0A1A2A44000705444A4A4A320062
:1032F000070502027E02020007053E4040407E00B4
:1033000007051E2040201E0007057E2018207E0095
:10331000070546281028460007050608700806001D
:1033200007054262524A460007027E42070306181A
:10333000600000000702427E07050804020408003E
:1033400007044040404000000702020407052054E3
:103350005454780007057E48484830000704304838
:10336000484800000705304848487E0007053854A3
:10337000545408000705087C0A0204000704485456
:10338000543C000007047E080870000007017A0022
:10339000070320403A00000007047E102844000084
:1033A00007017E0007057808700870000704780898
:1033B00008700000070430484830000007047C14FF
:1033C0001408000007040814147C00000705781096
:1033D0000808100007054854545424000705083E07
:1033E00048402000070538404040380007051820B5
:1033F0004020180007057820102078000705442891
:10340000102844000704485050380000070448685A
:1034100058480000070308764200000007017E00BC
:103420000703427E08000000070510080810080086
:10343000070100006C310008703100087431000889
:103440007C310008843100088C3100089431000878
:103450009C310008A0310008A8310008B0310008F4
:10346000B8310008C0310008C4310008CC31000870
:10347000D0310008D8310008E0310008E8310008F8
:10348000F0310008F8310008003200080832000866
:1034900010320008183200082032000828320008D4
:1034A0002C32000830320008383200084032000860
:1034B00048320008503200085832000860320008D4
:1034C0006832000870320008783200088032000844
:1034D000883200089032000898320008A0320008B4
:1034E000A8320008B0320008B8320008C032000824
:1034F000C8320008D0320008D8320008E032000894
:10350000E8320008F0320008F83200080033000802
:10351000083300081033000818330008203300086F
:10352000283300082C3300083433000838330008EF
:1035300040330008483300084C3300085433000877
:103540005C330008643300086C33000874330008EF
:103550007C330008843300088C3300089033000863
:1035600098330008A0330008A4330008AC330008E7
:10357000B4330008BC330008C4330008CC3300085F
:10358000D4330008DC330008E4330008EC330008CF
:10359000F4330008FC330008043400080C3400083D
:1035A000143400081C3400082034000828340008B3
:1035B00030340008090100000901BE0009030600BB
:1035C0000000060009062800FE0028002800FE0072
:1035D0002800000009054C009200FE0092006400E3
:1035E00009078000460026001000C800C400020041
:1035F00009066C009200B2004C00A0009000000090
:103600000901040009033800440082000903820014
:103610004400380009052A001C003E001C002A0056
:103620000905100010007C00100010000902800045
:103630004000000009031000100010000902C00043
:10364000C00000000904C000F8003E0006000000B1
:1036500009067C00A20092008A0086007C0000001F
:1036600009038400FE00800009058400C200A20056
:1036700092008C000905420082008A0096006200D8
:1036800009063000280024002200FE00200000006F
:1036900009054E008A008A008A0072000905780038
:1036A000940092009200620009060200E2001200FB
:1036B0000A0006000200000009056C00920092005A
:1036C00092006C0009058C009200920052003C00B0
:1036D00009014400090280004400000009041000B0
:1036E0002800440082000000090628002800280065
:1036F0002800280028000000090482004400280057
:103700001000000009040400A20012000C000000D8
:1037100009077C008200BA00AA00BA00A2009C003F
:103720000905FC00120012001200FC000905FE0051
:103730009200920092006C0009057C0082008200D9
:10374000820044000905FE008200820082007C00A5
:103750000905FE0092009200920082000905FE0019
:10376000120012001200020009057C008200820093
:103770009200F4000905FE00100010001000FE0089
:1037800009038200FE0082000905400080008200DB
:103790007E0002000905FE0010002800440082009F
:1037A0000905FE0080008000800080000905FE0001
:1037B000040008000400FE000905FE0008001000D7
:1037C0002000FE0009057C008200820082007C004F
:1037D0000905FE001200120012000C0009057C0011
:1037E0008200A2004200BC000905FE001200320067
:1037F00052008C0009058C00920092009200620039
:10380000090502000200FE000200020009057E0018
:10381000800080008000FE0009053E00400080001E
:1038200040003E000905FE00400030004000FE0060
:103830000905C600280010002800C60009050E0072
:103840001000E00010000E000905C200A200920066
:103850008A0086000902FE008200000009030600BB
:103860003800C00009028200FE00000009060800BE
:1038700004000200020004000800000009058000A6
:103880008000800080008000090202000400000027
:1038900009054000A800A800A800F0000905FE00E6
:1038A0008800880088007000090470008800880083
:1038B0008800000009057000880088008800FE006C
:1038C00009057000A800A800A800B00009051000B4
:1038D000FC0012000200040009059800A400A400E6
:1038E000A4007C000905FE00080008000800F000A4
:1038F0000901FA0009044000800080007A000000FD
:103900000904FE0020005000880000000901FE00AC
:103910000906F80010000800F0000800F0000000A0
:103920000904F80008000800F00000000905700014
:1039300088008800880070000904F800280028002A
:10394000100000000904100028002800F800000002
:103950000905F80010000800080010000905900093
:10396000A800A800A8004800090508007E008800FB
:10397000800040000904780080008000F80000000A
:103980000905380040008000400038000905F800B3
:10399000400030004000F800090588005000200079
:1039A0005000880009059800A000A000A000780041
:1039B00009058800C800A8009800880009041000C4
:1039C0006C008200820000000901FE0009048200F0
:1039D00082006C00100000000905100008001000B3
:1039E0002000100009010000B4350008B8350008B7
:1039F000BC350008C4350008D4350008E03500089F
:103A0000F035000800360008043600080C360008BF
:103A100014360008203600082C360008343600081A
:103A20003C3600084436000850360008603600086E
:103A300068360008743600088036000890360008A2
:103A40009C360008A8360008B8360008C4360008BE
:103A5000D0360008D4360008DC360008E836000806
:103A6000F83600080437000810370008203700082F
:103A70002C37000838370008443700085037000852
:103A80005C37000868370008743700088037000882
:103A90008837000894370008A0370008AC370008C2
:103AA000B8370008C4370008D0370008DC370008F2
:103AB000E8370008F4370008003800080C38000820
:103AC0001838000824380008303800083C3800084E
:103AD00048380008543800085C380008643800088A
:103AE0006C3800087C3800088838000890380008D6
:103AF0009C380008A8380008B4380008C03800080E
:103B0000CC380008D8380008E4380008F03800083D
:103B1000F4380008003900080C3900081039000892
:103B2000203900082C3900083839000844390008C9
:103B3000503900085C3900086839000874390008F9
:103B4000803900088C39000898390008A439000829
:103B5000B0390008BC390008C8390008CC39000861
:103B6000D8390008E43900080A0100000A017E0182
:103B70000A030600000006000A064800FE0148008D
:103B80004800FE01480000000A059C002201FE01D9
:103B90002201C4000A0784004E00240010004800DF
:103BA000E40042000A07DC00220152018C0180017E
:103BB000400100010A020600060000000A03780026
:103BC000840002010A030201840078000A052A0029
:103BD0001C003E001C002A000A0710001000100004
:103BE000FE001000100010000A020001800000001A
:103BF0000A032000200020000A028001800100004A
:103C00000A038001780006000A05FC002201120167
:103C10000A01FC000A030401FE0100010A05040177
:103C20008601420122011C010A06820002010201F2
:103C30001A012601C20000000A0570004800440075
:103C4000FE0140000A059E00120112011201E2006D
:103C50000A05FC00120112011201E2000A0602002C
:103C6000C201220012000A00060000000A05EC0052
:103C7000120112011201EC000A050C0112011201DD
:103C80001201FC000A0184000A0200018400000005
:103C90000A04300048008400020100000A055000B8
:103CA00050005000500050000A04020184004800F7
:103CB000300000000A0504004201220012000C003E
:103CC0000A08FC00020132014A014A017201420164
:103CD0003C0100000A05FC01120012001200FC0168
:103CE0000A05FE01120112011201EC000A05FC0096
:103CF00002010201020184000A05FE010201020123
:103D00000201FC000A05FE0112011201120102016A
:103D10000A05FE0112001200120002000A05FC0052
:103D2000020122012201E4010A05FE012000200017
:103D30002000FE010A030201FE0102010A058000C3
:103D400000010201FE0002000A05FE0120005000F1
:103D5000880004010A05FE010001000100010001C4
:103D60000A06FE010400180018000400FE0100000D
:103D70000A05FE01080010002000FE010A05FC00F3
:103D8000020102010201FC000A05FE0112001200FC
:103D900012000C000A05FC000201420182007C01B5
:103DA0000A05FE013200520092000C010A050C01C6
:103DB000120112011201E2000A0502000200FE01D6
:103DC000020002000A05FE00000100010001FE01E0
:103DD0000A057E008000000180007E000A05FE01C9
:103DE000800060008000FE010A0686014800300065
:103DF00030004800860100000A050E001000E001B6
:103E000010000E000A0682014201220112010A017D
:103E1000060100000A02FE01020100000A0306007A
:103E2000780080010A020201FE0100000A0710006A
:103E30000800040002000400080010000A05000148
:103E400000010001000100010A020200040000005C
:103E50000A059000500150015001E0010A05FE01E1
:103E6000100110011001E0000A05E000100110012E
:103E7000100180000A05E000100110011001FE0190
:103E80000A05E00050015001500160010A051000D0
:103E9000FC011200020004000A043001480148013C
:103EA000F80000000A04FE0110001000E00100000C
:103EB0000A030001F40100010A0380000001F4007C
:103EC0000A04FE0160009000080100000A01FE01E2
:103ED0000A06F0011000E00110001000E0010000EF
:103EE0000A05F001100010001000E0010A05E000D2
:103EF000100110011001E0000A05F001500050000F
:103F0000700020000A052000700050005000F001F1
:103F10000A05F00120001000100020000A05200111
:103F200050015001500190000A051000FC001001E2
:103F3000000180000A05F000000100010001F0010D
:103F40000A05700080000001800070000A05F00181
:103F5000800040008000F0010A051001A000400030
:103F6000A00010010A04300140014001F0000000EF
:103F70000A05100190015001300110010A043000BF
:103F8000CC000201020100000A01FE010A04020144
:103F90000201CC00300000000A07100008000800F1
:103FA00010002000100008000A010000683B000813
:103FB0006C3B0008703B0008783B0008883B000819
:103FC000943B0008A43B0008B43B0008BC3B00083D
:103FD000C43B0008CC3B0008D83B0008E83B000885
:103FE000F03B0008F83B0008003C0008083C0008D3
:103FF000143C00081C3C0008283C0008383C000821
:10400000443C0008503C00085C3C00086C3C000844
:10401000783C0008843C0008883C0008903C00087C
:104020009C3C0008A83C0008B43C0008C03C0008C8
:10403000D43C0008E03C0008EC3C0008F83C0008D8
:10404000043D0008103D00081C3D0008283D000804
:10405000343D00083C3D0008483D0008543D000840
:10406000603D0008703D00087C3D0008883D000868
:10407000943D0008A03D0008AC3D0008B83D000894
:10408000C43D0008D03D0008DC3D0008E83D0008C4
:10409000F83D0008043E0008143E00081C3E0008DD
:1040A000243E00082C3E00083C3E0008483E000824
:1040B000503E00085C3E0008683E0008743E000860
:1040C000803E00088C3E0008983E0008A43E000890
:1040D000B03E0008B83E0008C03E0008CC3E0008D4
:1040E000D03E0008E03E0008EC3E0008F83E000824
:1040F000043F0008103F00081C3F0008283F00084C
:10410000343F0008403F00084C3F0008583F00087B
:10411000643F0008703F00087C3F0008883F0008AB
:104120008C3F0008983F0008A83F00080B010000E2
:104130000B02FE02FE0200000B0506000600000056
:10414000060006000B078C01FE03FE038C01FE0334
:10415000FE038C010B079C01BE032603FE0326030E
:10416000EE03CC010B0800038C01CC006000300092
:1041700098018C01060000000B08DC01FE032603F9
:104180007E03DC038001C003600200000B02060016
:10419000060000000B04F000F8010C03060200000A
:1041A0000B0406020C03F801F00000000B071000DE
:1041B00054003800FE003800540010000B072000A7
:1041C00020002000FC012000200020000B03000242
:1041D000800380010B032000200020000B0200035D
:1041E000000300000B048003F003FE000E0000003B
:1041F0000B07FC01FE03460326031603FE03FC0126
:104200000B040402FE03FE03000200000B070C0275
:104210000E038603C60366033E031C030B078601D9
:104220008603060316033E03EE03C6010B07E000F8
:10423000F000D800CC00FE03FE03C0000B079E0177
:10424000BE03360336033603F603E6010B07FC0113
:10425000FE03660366036603E603C0010B06060061
:104260000603C603F6003E000E0000000B07DC014B
:10427000FE03360336033603FE03DC010B071C0086
:104280003E03360336033603FE03FC010B028C01AA
:104290008C0100000B0300028C038C010B06200034
:1042A0007000D8008C010603020200000B06D80043
:1042B000D800D800D800D800D80000000B060202B1
:1042C00006038C01D8007000200000000B050C00D4
:1042D000CE02E6023E001C000B09FC01FE030602B2
:1042E000F602D602F6027602C602FC000B07FC03B9
:1042F000FE03660066006600FE03FC030B07FE0378
:10430000FE03260326032603FE03DC010B07FC0144
:10431000FE030603060306038E038C010B07FE0350
:10432000FE03060306030603FE03FC010B06FE0361
:10433000FE03360336033603060300000B07FE03B5
:10434000FE03360036003600360006000B07FC017F
:10435000FE03060366036603EE03EC030B07FE038E
:10436000FE03600060006000FE03FE030B04020217
:10437000FE03FE03020200000B078001800300031E
:104380000603FE03FE0106000B07FE03FE036000AA
:10439000F00098010C0306020B06FE03FE03000367
:1043A00000030003000300000B07FE03FE030C00E4
:1043B00038000C00FE03FE030B07FE03FE0318008B
:1043C00030006000FE03FE030B07FC01FE03060342
:1043D00006030603FE03FC010B07FE03FE03360083
:1043E000360036003E001C000B07FC01FE030603EE
:1043F000C6038601FE03FC020B07FE03FE036600F4
:10440000E600E6013E031C020B071C033E033603D5
:1044100036033603F603E6010B0606000600FE032C
:10442000FE030600060000000B07FE01FE0300036A
:1044300000030003FE03FE030B077E00FE00800165
:1044400000038001FE007E000B07FE03FE038001D7
:10445000E0008001FE03FE030B070E039E03F00045
:104460006000F0009E030E030B080E001E003000DB
:10447000E003E00330001E000E0000000B070603FF
:104480008603C603660336031E030E030B03FE03F7
:10449000FE0306030B040E00FE00F0038003000081
:1044A0000B030603FE03FE030B07100018000C00AD
:1044B00006000C00180010000B06000200020002AB
:1044C00000020002000200000B04020006000C00C3
:1044D000080000000B069001500350035003F00346
:1044E000E00300000B07FE03FE033003300330033C
:1044F000F003E0010B06E001F0033003300330036A
:10450000300300000B07E001F003300330033003F9
:10451000FE03FE030B06E001F003500350035003BB
:10452000200300000B072000FC03FE03260006000A
:104530000E000C000B0778037C036C036C036C0308
:10454000FC03FC010B07FE03FE03300030003000CB
:10455000F003E0030B02F603F60300000B068001F4
:10456000800300030003F603F60100000B06FE03C0
:10457000FE03C000E0013003100200000B04000243
:10458000FE03FE03000200000B07F003F00310001F
:10459000E0031000F003E0030B06F003E00330003B
:1045A0003000F003E00300000B07E001F0033003EC
:1045B00030033003F003E0010B06F003F003B0001A
:1045C000B000F000600000000B066000F000B000DA
:1045D000B000F003F00300000B06F003F00320002E
:1045E00010001000200000000B066002F002D00254
:1045F000D002D003900100000B071000FE01FE0363
:1046000010030003800380010B07F001F003000397
:1046100000030003F003F0030B07F000F0010003B8
:1046200000020003F001F0000B07F003F00380012B
:10463000C0008001F003F0030B0710023003E0011B
:10464000C000E001300310020B063003700340038A
:104650004003F003F00100000B0730023003B00309
:10466000F0037003300310030B042000FC01DE0391
:10467000020200000B02FE03FE0300000B04020214
:10468000DE03FC01200000000B076000300030005A
:1046900060006000300010000B0100002C41000899
:1046A00030410008384100084441000854410008E6
:1046B00064410008784100088C41000894410008DA
:1046C000A0410008AC410008BC410008CC410008F2
:1046D000D4410008DC410008E4410008F041000832
:1046E000004200080C4200081C4200082C4200084E
:1046F0003C4200084C4200085C4200086C42000842
:104700007C4200088C420008944200089C42000849
:10471000AC420008BC420008CC420008D842000865
:10472000EC420008FC4200080C4300081C4300084F
:104730002C4300083C4300084C4300085C4300083D
:104740006C43000878430008884300089843000839
:10475000A8430008B8430008C8430008D84300082D
:10476000E8430008F843000808440008184400081B
:104770002844000838440008484400085844000809
:10478000684400087C4400088C44000894440008F5
:10479000A0440008A8440008B8440008C844000821
:1047A000D4440008E4440008F44400080445000828
:1047B0001445000824450008344500084445000815
:1047C000544500085C4500086C4500087C4500081D
:1047D0008845000898450008A8450008B845000825
:1047E000C8450008D8450008E8450008F845000815
:1047F0000846000818460008284600083846000801
:1048000048460008584600086846000874460008F4
:104810007C46000888460008984600080C01000005
:104820000C02FE04FE0400000C050E000E00000049
:104830000E000E000C079801FE07FE079801FE0708
:10484000FE0798010C083C037E076606FE07FE077C
:104850006606EC07C00300000C0800060C038C0180
:10486000C0006003300318000C0000000C099C031A
:10487000FE07E606BE071C07000600078007800645
:104880000C020C000C0000000C05F000F8010C03F9
:10489000060602040C05020406060C03F801F000EB
:1048A0000C0749002A001C007F001C002A00490058
:1048B0000C08600060006000FC03FC036000600006
:1048C000600000000C030004000700030C036000FC
:1048D000600060000C020006000600000C040007E7
:1048E000F007FE000E0000000C07FC03FE07C606E2
:1048F00066063606FE07FC030C040C04FE07FE07E2
:10490000000400000C070C040E0606078607C60606
:104910007E063C060C0706030607060636067E06DC
:10492000CE0786030C07E000F000D800CC00FE079D
:10493000FE07C0000C073C033E0736063606360667
:10494000F607E6030C07FC03FE0766066606660626
:10495000E607C0030C0706008607C6076600360098
:104960001E000E000C07BC03FE0766066606660600
:10497000FE07BC030C073C067E0666066606660656
:10498000FE07FC030C021803180300000C030004CC
:10499000180718030C064000E000B00118030C06CD
:1049A000060400000C07D800D800D800D800D800B2
:1049B000D800D8000C0606040C061803B001E0006D
:1049C000400000000C060C008E05C60566003E0087
:1049D0001C0000000C0AFC03FE070606F606F6069D
:1049E000B606F6068606FE067C0600000C07FC07E7
:1049F000FE07660066006600FE07FC070C07FE0760
:104A0000FE07660666066606FE079C030C07FC03A7
:104A1000FE070606060606060E070C030C07FE0731
:104A2000FE07060606060606FE07FC030C07FE0741
:104A3000FE07660666066606660606060C07FE079D
:104A4000FE07660066006600660006000C07FC03B1
:104A5000FE070606C606C606CE07CC070C07FE07ED
:104A6000FE07600060006000FE07FE070C040606FB
:104A7000FE07FE07060600000C07000300070006FD
:104A80000606FE07FE0306000C07FE07FE07600091
:104A9000F00098010C0306060C07FE07FE0700064F
:104AA00000060006000600060C08FE07FE070C00C4
:104AB000380038000C00FE07FE0700000C07FE0758
:104AC000FE07180030006000FE07FE070C07FC031D
:104AD000FE07060606060606FE07FC030C07FE0791
:104AE000FE076600660066007E003C000C07FC03C3
:104AF000FE070606C6068603FE03FC060C07FE0735
:104B0000FE076600E600E6017E033C060C073C0655
:104B10007E06660666066606E607C6030C080600FD
:104B200006000600FE07FE0706000600060000005D
:104B30000C07FE03FE07000600060006FE07FE0344
:104B40000C08FE00FE010003000600060003FE0143
:104B5000FE0000000C08FE07FE070003C001C001B4
:104B60000003FE07FE0700000C070E079E07F0007B
:104B70006000F0009E070E070C081E003E0060005B
:104B8000C007C00760003E001E0000000C070607BB
:104B90008607C606660636061E060E060C03FE07C8
:104BA000FE0706060C040E00FE00F00700070000DA
:104BB0000C030606FE07FE070C07300018000C0069
:104BC00006000C00180030000C0500060006000668
:104BD000000600060C04020006000C00080000009D
:104BE0000C063003B007B006B006F007E00700007F
:104BF0000C06FE07FE0730063006F007E003000053
:104C00000C06E003F00730063006300630060000E0
:104C10000C06E003F00730063006FE07FE07000032
:104C20000C07E003F007B006B006B006B006600659
:104C30000C066000FC07FE0766000E000C0000007A
:104C40000C067006F806D806D806F807F803000028
:104C50000C07FE07FE07300030003000F007E007C9
:104C60000C02F607F60700000C060003000700061A
:104C70000006F607F60300000C06FE07FE07C0015B
:104C800060033006100400000C02FE07FE0700005F
:104C90000C08F007F0073000E007F0073000F007DD
:104CA000E00700000C07F007F0076000300030005C
:104CB000F007E0070C07E003F00730063006300687
:104CC000F007E0030C06F007F007B000B000F000BA
:104CD000600000000C066000F000B000B000F007BB
:104CE000F00700000C07F007F0076000300030000C
:104CF000300060000C066006F006B006B006B00793
:104D0000300300000C053000FE03FE0730060003F0
:104D10000C07F003F007000600060006F007F00796
:104D20000C06F001F00300060006F003F00100009D
:104D30000C07F007F007000380010003F007F007FD
:104D40000C0730046006C0038001C0036006300415
:104D50000C067006F006C006C006F007F00300005F
:104D60000C07300430063007B007F0067006300636
:104D70000C046000FC039E07020400000C02FE0706
:104D8000FE0700000C0402049E07FC036000000004
:104D90000C076000700030006000C000C0006000C0
:104DA0000C0100001C4800082048000828480008A2
:104DB0003448000844480008584800086C48000877
:104DC000804800088848000894480008A048000867
:104DD000B0480008C4480008CC480008D44800087F
:104DE000DC480008E8480008F848000804490008C2
:104DF00014490008244900083449000844490008BF
:104E000054490008644900087449000884490008AE
:104E10008C49000894490008A4490008B4490008D6
:104E2000C4490008D4490008EC490008FC490008BE
:104E30000C4A00081C4A00082C4A00083C4A00089A
:104E40004C4A00085C4A00086C4A0008784A00088E
:104E5000884A0008984A0008A84A0008BC4A000886
:104E6000CC4A0008DC4A0008EC4A0008FC4A00086A
:104E70000C4B00081C4B0008304B0008404B00084E
:104E8000544B0008684B0008784B00088C4B000816
:104E90009C4B0008A44B0008B04B0008B84B00081E
:104EA000C84B0008D44B0008E04B0008F04B00084A
:104EB000004C0008104C0008204C0008304C000842
:104EC000404C0008504C0008604C0008684C00083A
:104ED000784C0008884C0008904C0008A44C00084E
:104EE000B44C0008C44C0008D44C0008E44C000842
:104EF000F44C0008044D0008104D0008204D000837
:104F0000304D0008404D0008504D0008604D00082D
:104F1000704D00087C4D0008844D0008904D00083D
:104F2000A04D00080D0100000D02FE0DFE0D000059
:104F30000D051E001E0000001E001E000D091803B6
:104F40001803FE0FFE0F1803FE0FFE0F18031803C1
:104F50000D087C06FE0EC60CFE0FFE0FC60CDE0F03
:104F60009C0700000D08000E0C0F8C01C0006000B3
:104F700030061E060E0000000D0A1C07FE0FC60CB0
:104F8000FE0CBC0D000F0006000F800D800C000011
:104F90000D021E001E0000000D05F001F8030C06B6
:104FA000060C02080D050208060C0C06F803F001B9
:104FB0000D083201B4007800FE01FE017800B40053
:104FC000320100000D08C000C000C000F807F8075B
:104FD000C000C000C00000000D030008000E000665
:104FE0000D03C000C000C0000D03000E000E000E37
:104FF0000D05000E000EF001FE011E000D08FC075D
:10500000FE0F860DC60C660C360CFE0FFC0700006A
:105010000D0508000C0CFE0FFE0F000C0D080C080F
:105020000E0C060E060F860DC60C7E0C3C0C000006
:105030000D080606060E060C260C760CDE0C8E0FEE
:10504000060700000D08C001E001B00198018C01C5
:10505000FE0FFE0F800100000D083E063E0E360CCE
:10506000360C360C360CF60FE60700000D08FC0770
:10507000FE0FC60CC60CC60CC60CC60F800700007F
:105080000D0806000600060F860FC60066003E00EB
:105090001E0000000D089C07FE0F660C660C660CD7
:1050A000660CFE0F9C0700000D087C0CFE0CC60C65
:1050B000C60CC60CC60CFE0FFC0700000D0218063D
:1050C000180600000D030008180E18060D07400012
:1050D000E000B00118030C06060C02080D08B00130
:1050E000B001B001B001B001B001B001B0010000E9
:1050F0000D070208060C0C061803B001E000400082
:105100000D071C001E00060D860DC6007E003C002B
:105110000D0BFC07FE0F060CE60CF60DB60DF60D9A
:10512000E60C860DFE0DFC000D08FC0FFE0FC60000
:10513000C600C600C600FE0FFC0F00000D08FE0FE3
:10514000FE0FC60CC60CC60CC60CFE0FBC0700003A
:105150000D08FC07FE0F060C060C060C060C1E0EB6
:105160001C0600000D08FE0FFE0F060C060C060CB8
:10517000060CFE0FFC0700000D08FE0FFE0FC60C0C
:10518000C60CC60CC60CC60C060C00000D08FE0FA3
:10519000FE0FC600C600C600C600C600060000001E
:1051A0000D08FC07FE0F060CC60CC60CC60CDE0F65
:1051B000DC0F00000D08FE0FFE0FC000C000C00095
:1051C000C000FE0FFE0F00000D04060CFE0FFE0FC8
:1051D000060C00000D070007000F060C060CFE0F62
:1051E000FE0706000D08FE0FFE0FC000E0013003B1
:1051F00018060C0C060800000D08FE0FFE0F000C30
:10520000000C000C000C000C000C00000D08FE0F40
:10521000FE0F0C00380038000C00FE0FFE0F0000DF
:105220000D08FE0FFE0F180030006000C000FE0FDA
:10523000FE0F00000D08FC07FE0F060C060C060C06
:10524000060CFE0FFC0700000D08FE0FFE0FC60047
:10525000C600C600C600FE007C0000000D08FC076A
:10526000FE0F060C860D060F0606FE0FFC0B000057
:105270000D07FE0FFE0FC600C601C603FE067C0C1E
:105280000D083C0C7E0C660C660C660C660CE60F7A
:10529000C60700000D08060006000600FE0FFE0F00
:1052A00006000600060000000D08FE07FE0F000CB9
:1052B000000C000C000CFE0FFE0F00000D08FE019C
:1052C000FE030006000C000C0006FE03FE010000B9
:1052D0000D08FE0FFE0F0006800380030006FE0F80
:1052E000FE0F00000D080E0E1E0FB001E000E000E2
:1052F000B0011E0F0E0E00000D081E003E006000E3
:10530000C00FC00F60003E001E0000000D08060E1A
:10531000060F860DC60C660C360C1E0C0E0C00001B
:105320000D04FE0FFE0F060C060C00000D051E00FE
:105330001E00F001F00F000E0D04060C060CFE0F0F
:10534000FE0F00000D08100018000C0006000600FB
:105350000C001800100000000D07000C000C000CE1
:10536000000C000C000C000C0D05020006000C00E7
:10537000180010000D070007B00FB00DB00DB00DF4
:10538000F00FE00F0D07FE0FFE0F300C300C300C4D
:10539000F00FE0070D07E007F00F300C300C300C79
:1053A000300E60060D07E007F00F300C300C300CAB
:1053B000FE0FFE0F0D08E007F00FB00DB00DB00DA1
:1053C000B00DF00DE00D00000D07C000C000FC0F97
:1053D000FE0FC6000E000C000D08F00CF80D980D25
:1053E000980D980D980DF80FF80700000D07FE0FA7
:1053F000FE0F300030003000F00FE00F0D02F60F0E
:10540000F60F00000D060006000E000C000CF60F53
:10541000F60700000D07FE0FFE0F8001C0036006B7
:10542000300C10080D02FE0FFE0F00000D09F00FEA
:10543000F00F3000E00FF00F30003000F00FE00F01
:105440000D08F00FF00F6000300030003000F00F5A
:10545000E00F00000D08E007F00F300C300C300CAE
:10546000300CF00FE00700000D07F00FF00FB00157
:10547000B001B001F001E0000D07E000F001B00163
:10548000B001B001F00FF00F0D08F00FF00F600049
:105490003000300030006000400000000D07E00CDC
:1054A000F00DB00DB00DB00DB00F30070D0730008E
:1054B0003000FE07FE0F300C000E00060D07F0074F
:1054C000F00F000C000C000CF00FF00F0D08F001B5
:1054D000F0030006000C000C0006F003F0010000D1
:1054E0000D08F00FF00F0006800380030006F00F98
:1054F000F00F00000D083008700CC0068003800318
:10550000C006700C300800000D07F00CF00D800D87
:10551000800D800DF00FF0070D083008300C300EB4
:10552000300FB00DF00C700C300C00000D0440007A
:10553000FC07BE0F020800000D02FE0FFE0F000068
:105540000D040208BE0FFC07400000000D0AC00059
:105550006000300030006000C000C000600030001B
:10556000100000000D010000244F0008284F000823
:10557000304F00083C4F0008504F0008644F0008AF
:10558000784F0008904F0008984F0008A44F00087B
:10559000B04F0008C44F0008D84F0008E04F000883
:1055A000E84F0008F04F0008FC4F000810500008BA
:1055B0001C500008305000084450000858500008A3
:1055C0006C5000088050000894500008A850000853
:1055D000BC500008C4500008CC500008DC50000843
:1055E000F050000800510008105100082851000830
:1055F0003C510008505100086451000878510008DF
:105600008C510008A0510008B4510008C85100088E
:10561000D4510008E4510008F85100080C52000869
:105620002052000834520008485200085C5200081A
:10563000705200088052000894520008A8520008D6
:10564000BC520008D0520008E4520008F85200088A
:105650000C530008205300082C530008385300084E
:105660004453000858530008685300087453000856
:105670008453000894530008A4530008B45300084E
:10568000C8530008D8530008EC530008FC53000826
:105690000454000814540008245400082C54000832
:1056A0004054000854540008685400087854000816
:1056B000885400089C540008AC540008BC540008EE
:1056C000CC540008E0540008F454000808550008C1
:1056D000185500082C55000838550008405500089A
:1056E0004C550008645500080E0100000E02FC1B1A
:1056F000FC1B00000E051C001C0000001C001C0010
:105700000E0918061806FC1FFC1F1806FC1FFC1FBC
:10571000180618060E087C0CFE1CC618FE1FFE1F7D
:10572000C618DE1F9C0F00000E0B0018000C0006B0
:1057300018039801C0006000300C180C0C00040025
:105740000E0A380F7C1FCC18FC19381B001E000EE7
:10575000001E001B001900000E021C001C000000AF
:105760000E05E003F007180C0C1804100E050410C9
:105770000C18180CF007E0030E0710005400380056
:10578000FE003800540010000E08C000C000C00029
:10579000F807F807C000C000C00000000E030010AA
:1057A000001C000C0E04C000C000C000C0000000BF
:1057B0000E03001C001C001C0E05001C801FF003C3
:1057C0007C000C000E09FC0FFE1F061B8619C61874
:1057D00066183618FE1FFC0F0E0510181818FC1F4F
:1057E000FE1F00180E091C101E18061C061E061BA4
:1057F0008619C6187E183C180E09060C061C0618D9
:1058000006186618FE189E190E1F060E0E09800354
:10581000C003600330031803FC1FFC1F00030003D8
:105820000E097E0C7E1C66186618661866186618C7
:10583000E61FC60F0E08FC0FFE1FC618C618C618B6
:10584000C618C61F860F00000E080600061E061F9B
:105850008601C60066003E001E0000000E093C0FD7
:10586000FE1FC618C618C618C618C618FE1F3C0F5D
:105870000E097C00FE18C618C618C618C618C61829
:10588000FE1FFC0F0E021806180600000E03001083
:10589000181C180C0E06C000E001300318060C0C92
:1058A000061800000E0960036003600360036003D4
:1058B00060036003600360030E0606180C0C1806F4
:1058C0003003E001C00000000E071C001E00061B94
:1058D000861BC6007C0038000E0CF807FC0F06186B
:1058E000C619E61B661B661BE61BE619061BFC1B9E
:1058F000F80100000E09F01FF81FCC00C600C6001A
:10590000C600CC00F81FF01F0E09FE1FFE1FC618B0
:10591000C618C618C618C618FE1F3C0F0E09F80F89
:10592000FC1F061806180618061806180E0C0C049C
:105930000E09FE1FFE1F0618061806180618061880
:10594000FC0FF8070E08FE1FFE1FC618C618C61863
:10595000C618C618061800000E08FE1FFE1FC60057
:10596000C600C600C600C600060000000E09FC0FF7
:10597000FE1F061806188619861986199E1F9C1F79
:105980000E09FE1FFE1FC000C000C000C000C00006
:10599000FE1FFE1F0E040618FE1FFE1F0618000045
:1059A0000E090004000C001806180618FE0FFE076A
:1059B000060006000E08FE1FFE1FC000E0013003B7
:1059C00018060C0C061800000E09FE1FFE1F00181A
:1059D0000018001800180018001800180E09FE1F03
:1059E000FE1F0C001800300018000C00FE1FFE1FE8
:1059F0000E09FE1FFE1F1C007000E0018003000E58
:105A0000FE1FFE1F0E09F807FC0F061806180618E1
:105A100006180618FC0FF8070E08FE1FFE1F66008A
:105A20006600660066007E003C0000000E09FC0F68
:105A3000FE1F06180618061A061E060CFE1FFC138B
:105A40000E09FE1FFE1FC600C601C603C606C60C11
:105A5000FE187C100E097C18FE18C618C618C61849
:105A6000C618C618C61F860F0E08060006000600D8
:105A7000FE1FFE1F06000600060000000E09FE07BE
:105A8000FE0F00180018001800180018FE1FFE1F57
:105A90000E08FE03FE07000C00180018000CFE079D
:105AA000FE0300000E09FE1FFE1F000C000600038F
:105AB0000006000CFE1FFE1F0E090E1C1E1E3003EA
:105AC000E001C000E00130031E1E0E1C0E081E0087
:105AD0003E006000C01FC01F60003E001E000000AE
